S0120000436F6F6C65725F6170702E737265630E
S11300000C942A000C943F000C943F000C943F0085
S11300100C943F000C943F000C943F000C943F0060
S11300200C943F000C943F000C943F000C943F0050
S11300300C943F000C943F000C943F000C943F0040
S11300400C943F000C943F000C943F000C943F0030
S11300500C943F0011241FBECFE5D8E0DEBFCDBF16
S113006010E0A0E6B0E0E0EAF9E002C005900D92ED
S1130070AA36B107D9F70E9474020C94CE040C94EA
S1130080000087B1806487B986B1806886B986B17B
S1130090876086B9089597B1907E97B997B1892BF7
S11300A087B986B1806486B93699FECF84B195B19B
S11300B008959BB394609BBB882324F49BB39068FE
S11300C09BBB03C09BB39F779BBB86FF04C09BB3C2
S11300D090649BBB03C09BB39F7B9BBB85FF04C009
S11300E09BB390629BBB03C09BB39F7D9BBB84FF70
S11300F004C09BB390619BBB03C09BB39F7E9BBB1F
S11301009BB398609BBBEFE9FFE03197F1F700C028
S113011000009BB3977F9BBBEFE9FFE03197F1F7BA
S113012000C0000083FF04C09BB390689BBB03C066
S11301309BB39F779BBB82FF04C09BB390649BBB24
S113014003C09BB39F7B9BBB81FF04C09BB39062A6
S11301509BBB03C09BB39F7D9BBB80FF04C08BB341
S113016080618BBB03C08BB38F7E8BBB8BB38860EA
S11301708BBB8FE99FE00197F1F700C000008BB3C0
S1130180877F8BBBEFE9FFE03197F1F700C00000F8
S113019008959BB39B7F9BBB882324F49BB39068F7
S11301A09BBB03C09BB39F779BBB86FF04C09BB3E1
S11301B090649BBB03C09BB39F7B9BBB85FF04C028
S11301C09BB390629BBB03C09BB39F7D9BBB84FF8F
S11301D004C09BB390619BBB03C09BB39F7E9BBB3E
S11301E09BB398609BBBEFE9FFE03197F1F700C048
S11301F000009BB3977F9BBBEFE9FFE03197F1F7DA
S113020000C0000083FF04C09BB390689BBB03C085
S11302109BB39F779BBB82FF04C09BB390649BBB43
S113022003C09BB39F7B9BBB81FF04C09BB39062C5
S11302309BBB03C09BB39F7D9BBB80FF04C08BB360
S113024080618BBB03C08BB38F7E8BBB8BB3886009
S11302508BBB8FE99FE00197F1F700C000008BB3DF
S1130260877F8BBBEFE9FFE03197F1F700C0000017
S113027008958AB38C6F8ABB83E00E94C9008FE71C
S11302809EE30197F1F700C0000083E00E94C900DB
S11302908FE79EE30197F1F700C0000083E00E941E
S11302A0C9008FE79EE30197F1F700C0000082E0E8
S11302B00E94C90088E20E94C90081E00E94C9002E
S11302C086E00E94C9008CE00E94C9009FEF29EFDC
S11302D080E0915020408040E1F700C00000089584
S11302E04F925F926F927F928F929F92AF92BF9242
S11302F0CF92DF92EF92FF92CF93DF93CDB7DEB729
S1130300A8970FB6F894DEBF0FBECDBF9B01AC011A
S113031099238CF550954095309521953F4F4F4F3B
S11303205F4F812C912C5401839428C0CA01B901D8
S11303302AE030E040E050E00E948D0426013701BD
S1130340EFEF4E1A5E0A6E0A7E0ACC0CDD1CCC0C52
S1130350DD1CE1E0F0E0EC0FFD1FEC0DFD1D608302
S1130360718382839383211531054105510561F021
S11303707301620106C0812C912C5401C12CD12C33
S1130380760155239CF602C07301620189288A28EC
S11303908B28C1F08DE20E94590014C081E0C81A74
S11303A0D108E108F108F601EE0FFF1FEE0FFF1F61
S11303B081E090E08C0F9D1FE80FF91F8081805D24
S11303C00E9459001C141D041E041F043CF3A8962B
S11303D00FB6F894DEBF0FBECDBFDF91CF91FF9073
S11303E0EF90DF90CF90BF90AF909F908F907F90D1
S11303F06F905F904F90089580E00E944B00BC0185
S113040080E090E00E94920326EF38E24CE950E449
S11304100E94200420E030E040E251E40E94F10216
S11304200E946303862F08958432C0F098B39860C5
S113043098BB9CED980F9230B0F09AED980F9230E3
S1130440A0F098ED980F923090F096ED980F9330BD
S113045080F08D52833078F48AE5089588B3877FDD
S113046088BB80E0089582E308958CE3089586E4D0
S1130470089580E5089584E608950F931F93CF931C
S1130480DF93182F062FD0E016C0CDEC1C9FC12D92
S11304901124C695C695C69561E08C2F0E94CD02A5
S11304A0CC0F8C2F880F880FC80F62E0812F8C1B14
S11304B00E94CD02DF5FDD3740F381E00E94C90076
S11304C0612F70E080E090E00E94700180EC0E9457
S11304D0C900602F70E080E090E00E947001DF911D
S11304E0CF911F910F9108950E94B4020E94390187
S11304F00E9441000E94900281B3806481BB87B353
S1130500886087BB0E94FC01C82F0E941402D82F68
S113051090E00E94A3026D2F8C2F0E943D02F2CF27
S113052081B3806281BB8FB580688FBD8FB58160D8
S11305308FBD8FB582608FBD8EB588608EBD8EB540
S113054081608EBD0895682F70E080E090E00E9485
S1130550940324E13EEA43E251E40E9420040E9411
S113056063037BBD6ABD089584B38F6784BB8FE743
S113057085BB87B3816087BB87B3826087BB80E01C
S113058009C0E82FF0E0E05AFF4F20819FE792274F
S113059090838F5F8A30A8F3089598B39E7F98BBA9
S11305A098B39D7F98BB613019F0623029F007C081
S11305B098B3916098BB03C098B3926098BB95B30D
S11305C0907895BB95B3E82FF0E0E05AFF4F808117
S11305D0892B85BB8FE99FE00197F1F700C00000EC
S11305E008950E9405030C94E6030E94DF0358F06B
S11305F00E94D80340F029F45F3F29F00C94CF0304
S113060051110C941A040C94D5030E94F70368F357
S11306109923B1F3552391F3951B550BBB27AA27B7
S113062062177307840738F09F5F5F4F220F331FF1
S1130630441FAA1FA9F335D00E2E3AF0E0E832D0B9
S113064091505040E695001CCAF72BD0FE2F29D0BC
S1130650660F771F881FBB1F261737074807AB078E
S1130660B0E809F0BB0B802DBF01FF2793585F4F03
S11306703AF09E3F510578F00C94CF030C941A0481
S11306805F3FE4F3983ED4F3869577956795B795E5
S1130690F7959F5FC9F7880F911D9695879597F9F0
S11306A00895E1E0660F771F881FBB1F6217730769
S11306B08407BA0720F0621B730B840BBA0BEE1F7E
S11306C088F7E09508950E94FF0388F09F5798F0FB
S11306D0B92F9927B751B0F0E1F0660F771F881F43
S11306E0991F1AF0BA95C9F714C0B13091F00E945D
S11306F01904B1E008950C941904672F782F882702
S1130700B85F39F0B93FCCF3869577956795B39583
S1130710D9F73EF490958095709561957F4F8F4FF2
S11307209F4F0895E89409C097FB3EF490958095F7
S1130730709561957F4F8F4F9F4F9923A9F0F92FA3
S113074096E9BB279395F695879577956795B79521
S1130750F111F8CFFAF4BB0F11F460FF1BC06F5F07
S11307607F4F8F4F9F4F16C0882311F096E911C019
S1130770772321F09EE8872F762F05C0662371F03A
S113078096E8862F70E060E02AF09A95660F771F4E
S1130790881FDAF7880F9695879597F9089597F942
S11307A09F6780E870E060E008959FEF80EC089513
S11307B000240A941616170618060906089500243C
S11307C00A9412161306140605060895092E0394B6
S11307D0000C11F4882352F0BB0F40F4BF2B11F42A
S11307E060FF04C06F5F7F4F8F4F9F4F089557FD89
S11307F09058440F551F59F05F3F71F04795880F8B
S113080097FB991F61F09F3F79F087950895121621
S113081013061406551FF2CF4695F1DF08C01616CD
S113082017061806991FF1CF86957105610508947E
S11308300895E894BB2766277727CB0197F9089595
S11308400E9433040C94E6030E94D80338F00E94FB
S1130850DF0320F0952311F00C94CF030C94D503FF
S113086011240C941A040E94F70370F3959FC1F3AA
S1130870950F50E0551F629FF001729FBB27F00D4A
S1130880B11D639FAA27F00DB11DAA1F649F66279F
S1130890B00DA11D661F829F2227B00DA11D621FEE
S11308A0739FB00DA11D621F839FA00D611D221FA8
S11308B0749F3327A00D611D231F849F600D211D8C
S11308C0822F762F6A2F11249F5750409AF0F1F00F
S11308D088234AF0EE0FFF1FBB1F661F771F881F78
S11308E091505040A9F79E3F510580F00C94CF03DE
S11308F00C941A045F3FE4F3983ED4F386957795FD
S11309006795B795F795E7959F5FC1F7FE2B880F1D
S1130910911D9695879597F90895052E97FB1EF4DA
S113092000940E94A40457FD07D00E94AC0407FC65
S113093003D04EF40C94A404509540953095219521
S11309403F4F4F4F5F4F08959095809570956195F7
S11309507F4F8F4F9F4F0895A1E21A2EAA1BBB1BF6
S1130960FD010DC0AA1FBB1FEE1FFF1FA217B30777
S1130970E407F50720F0A21BB30BE40BF50B661F8D
S1130980771F881F991F1A9469F760957095809551
S113099090959B01AC01BD01CF010895F894FFCF60
S10D09A03F065B4F666D7D077F6F15
S9030000FC
